:020000040800F2
:100000000028002091190008F5180008FB180008C6
:1000100001190008071900080D1900080000000068
:10002000000000000000000000000000131900089C
:100030001F190008000000002B19000837190008DC
:10004000D9190008D9190008D9190008D9190008C8
:10005000D9190008D9190008D9190008D9190008B8
:10006000D9190008D9190008D9190008D9190008A8
:10007000D9190008D9190008D9190008D919000898
:10008000D9190008D9190008D9190008D919000888
:10009000D9190008D9190008D9190008D919000878
:1000A000D9190008D9190008D9190008D919000868
:1000B00045190008D919000800000000D9190008E6
:1000C000D91900080000000000000000D91900083C
:1000D00000000000D9190008D9190008000000002C
:1000E000D9190008D9190008D91900080000000022
:1000F0000000000000000000000000000000000000
:0C01000000000000000000005FF808F1A3
:10010C0010B5054C237833B9044B13B10448AFF345
:10011C0000800123237010BD9C0000200000000013
:10012C000830000808B5034B1BB103490348AFF373
:10013C00008008BD00000000A0000020083000086E
:10014C0080B483B000AF7860094A7B6852F82330E2
:10015C00012B06D1064A7B68002142F823100123AB
:10016C0000E0002318460C37BD4680BC704700BF2A
:10017C00B800002080B483B000AF7860044A7B687C
:10018C00012142F8231000BF0C37BD4680BC7047DC
:10019C00B800002080B582B000AF00237B6078E00F
:1001AC00404A7B6852F823203F497B6841F8232062
:1001BC003E4A7B6852F823203A497B6841F8232059
:1001CC003B4A7B6852F823203A497B6831F813305C
:1001DC001946104601F0E6FE03461946334A7B6881
:1001EC0042F823102F4A7B6852F823202F497B6852
:1001FC0051F823309A4249D12A4A7B6852F823207D
:10020C0029497B6851F823309A423FD1264A7B68B2
:10021C0052F8232028497B6851F823309A4217D092
:10022C00214A7B6852F8232023497B6841F823201C
:10023C00214A7B6852F82330002B27D11F4A7B6858
:10024C004FF4FA7142F823107868FFF793FF1DE022
:10025C001A4A7B6852F823305A1E18497B6841F8B9
:10026C002320164A7B6852F82330002B0ED1134AF8
:10027C007B684FF4FA7142F823100F4A7B6852F8EE
:10028C002330002B02D17868FFF774FF7B680133B1
:10029C007B607B68042B83DD00BF00BF0837BD4645
:1002AC0080BD00BF3400002048000020200000204A
:1002BC0000000020140000205C00002070000020D2
:1002CC0080B500AF914B1B68042B00F2778101A223
:1002DC0052F823F0F50200083F030008DF03000882
:1002EC00790400083105000800F092FB884B1B686C
:1002FC00884A1360884B1B68884A1360854B1B68BF
:10030C00864A12681146184600F088FD7F4B012280
:10031C001A60814B1B684FF47A7202FB03F3194687
:10032C00002001F021FA4FF47A71012001F01CFA3F
:10033C004DE1012000F0DCFA022000F039FB012035
:10034C0001F032FA0346012B16D1724B1B68013BAC
:10035C00704A1360714B1B68013B704A13606D4B04
:10036C001B686E4A12681146184600F057FD4FF490
:10037C007A71012001F0F8F9002001F015FA03461A
:10038C00012B40F01D81614B02221A60604B1A68F0
:10039C00614B1B68D31A5F4A1360614B1B685F4A41
:1003AC0013605F4B1B684FF47A7202FB03F3194620
:1003BC00002001F0D9F94FF47A71012001F0D4F941
:1003CC00544B1B68554A12681146184600F026FD1E
:1003DC00F6E0012000F08CFA022000F0B9FA0120BE
:1003EC0001F0E2F90346012B16D14A4B1B68013B85
:1003FC00484A1360494B1B68013B484A1360454B04
:10040C001B68464A12681146184600F007FD4FF467
:10041C007A71012001F0A8F9002001F0C5F903461A
:10042C00012B40F0CF80394B03221A603A4B1B68EA
:10043C00384A1360364B1B68384A1360364B1B68BE
:10044C004FF47A7202FB03F31946002001F08CF989
:10045C004FF47A71012001F087F92E4B1B682F4A5B
:10046C0012681146184600F0D9FCABE0012000F0F0
:10047C009FFA022000F03CFA012001F095F90346A6
:10048C00012B16D1234B1B68013B224A1360234BD3
:10049C001B68013B214A13601E4B1B681F4A1268E4
:1004AC001146184600F0BAFC4FF47A71012001F0A5
:1004BC005BF9002001F078F90346012B40F08480B1
:1004CC00124B04221A60164B1B68124A1360104B15
:1004DC001A68114B1B68D31A104A1360104B1B6817
:1004EC004FF47A7202FB03F31946002001F03CF939
:1004FC004FF47A71012001F037F9064B1B68074A5B
:10050C0012681146184600F089FC5DE0CC00002012
:10051C0084000020D00000208C000020D40000209B
:10052C0088000020012000F013FA022000F0E0F90E
:10053C00012001F039F90346012B16D1254B1B681C
:10054C00013B244A1360244B1B68013B224A136075
:10055C00204B1B68204A12681146184600F05EFCBE
:10056C004FF47A71012001F0FFF8002001F01CF922
:10057C000346012B2AD1194B01221A60184B1B6818
:10058C00144A1360174B1B68134A1360154B1B68F6
:10059C004FF47A7202FB03F31946002001F0E4F8E1
:1005AC004FF47A71012001F0DFF80A4B1B680A4AFC
:1005BC0012681146184600F031FC07E000BF06E057
:1005CC0000BF04E000BF02E000BF00E000BF00BFBE
:1005DC0080BD00BFD0000020D4000020CC00002043
:1005EC00840000208C00002080B500AF5B4B1B68A2
:1005FC000E2B73D00E2B00F3A7800C2B02D00D2BDF
:10060C0036D0A1E0564B1B681946022000F006FCC0
:10061C00022001F0C9F80346012B0CD102215148EC
:10062C0001F0EFFC10214F4801F0EBFC4FF4FA7194
:10063C00022001F099F80120FFF782FD0346012BFF
:10064C000BD1474B1B680133454A1360444B1B6865
:10065C00632B02DD424B01221A600220FFF770FD72
:10066C000346012B72D13E4B1B683F4A13606DE071
:10067C003E4B1B681946032000F0D0FB022001F012
:10068C0093F80346012B0CD10421364801F0B9FC38
:10069C002021344801F0B5FC4FF4FA71022001F02E
:1006AC0063F80120FFF74CFD0346012B0BD12F4BB8
:1006BC001B6801332D4A13602C4B1B68632B02DD26
:1006CC002A4B01221A600220FFF73AFD0346012B48
:1006DC003ED1264B1B68264A136039E0254B1B681C
:1006EC001946042000F09AFB022001F05DF8034645
:1006FC00012B0CD108211B4801F083FC4021194827
:10070C0001F07FFC4FF4FA71022001F02DF801206A
:10071C00FFF716FD0346012B0BD1164B1B6801335B
:10072C00144A1360134B1B68632B02DD114B01221F
:10073C001A600220FFF704FD0346012B0AD10D4B72
:10074C001B680D4A136005E000BF04E000BF02E027
:10075C0000BF00E000BF00BF80BD00BFCC00002088
:10076C00D80000200008014084000020DC0000209C
:10077C0088000020E00000208C00002080B500AF35
:10078C000020FFF7DDFC0346012B59D12D4B1B68D4
:10079C00002B07D02B4B1B68002B1DDD294B1B6836
:1007AC00042B19DC274B0C221A6000F031F9264B74
:1007BC0001221A60254B01221A60254B01221A6076
:1007CC004FF4FA71022000F0CFFF1F4B1B68194643
:1007DC00022000F023FB33E01A4B1B680C2B0BD1CF
:1007EC00184B0D221A6000F013F9184B1B681946B0
:1007FC00032000F013FB23E0124B1B680D2B0BD1D5
:10080C00104B0E221A6000F003F9114B1B681946AD
:10081C00042000F003FB13E00A4B1B680E2B0FD1D6
:10082C0000F018F8084B01221A60084B01221A60DC
:10083C00074B01221A60034B00221A6000F0E8F803
:10084C0000BF80BDCC000020D8000020DC000020C0
:10085C00E000002080B400AF224B1B68002B02DCB0
:10086C00204B01221A60204B1B68002B02DC1E4B14
:10087C0001221A601D4B1B68002B02DC1B4B012252
:10088C001A60194B1A68194B1B681A44154B1B68D4
:10089C009A4223D0134B1A68144B1B68D31A124A72
:1008AC001360114B1B68002B19DC0F4B01221A60D3
:1008BC000C4B1A680C4B1B68D31A0C4A13600B4B6D
:1008CC001B68002B0BDC094B01221A60074B1A68C2
:1008DC00054B1B681344034A136000E000BFBD4680
:1008EC0080BC704784000020880000208C00002011
:1008FC0080B582B000AF78607B68012B0FD10022ED
:10090C000221124801F065FB012204210F4801F07D
:10091C0060FB012208210D4801F05BFB11E07B68B4
:10092C00022B0ED100221021084801F052FB0122AB
:10093C002021064801F04DFB01224021034801F023
:10094C0048FB00BF0837BD4680BD00BF0008014012
:10095C0080B582B000AF78607B68012B0FD101228B
:10096C000221124801F035FB002204210F4801F04E
:10097C0030FB012208210D4801F02BFB11E07B68B4
:10098C00022B0ED101221021084801F022FB00227B
:10099C002021064801F01DFB01224021034801F0F3
:1009AC0018FB00BF0837BD4680BD00BF00080140E2
:1009BC0080B582B000AF78607B68012B0FD101222B
:1009CC000221124801F005FB012204210F4801F01D
:1009DC0000FB002208210D4801F0FBFA11E07B68B6
:1009EC00022B0ED101221021084801F0F2FA01224B
:1009FC002021064801F0EDFA00224021034801F0C5
:100A0C00E8FA00BF0837BD4680BD00BF00080140B2
:100A1C0080B500AF012202210E4801F0DAFA012262
:100A2C0004210C4801F0D5FA01220821094801F0F3
:100A3C00D0FA01221021074801F0CBFA0122202123
:100A4C00044801F0C6FA01224021024801F0C1FA23
:100A5C0000BF80BD0008014080B500AF012201211C
:100A6C00114801F0B6FA012202210F4801F0B1FA47
:100A7C00012204210C4801F0ACFA012208210A4899
:100A8C0001F0A7FA01221021074801F0A2FA012275
:100A9C002021054801F09DFA01224021024801F075
:100AAC0098FA00BF80BD00BF000C014080B582B039
:100ABC0000AF7860FFF7D0FF7B68092B00F217813D
:100ACC0001A252F823F000BFFD0A00083B0B0008FE
:100ADC00510B0008850B0008B90B0008E30B00084C
:100AEC00170C0008550C0008750C0008BD0C00080C
:100AFC0000220121804801F06CFA002202217E487C
:100B0C0001F067FA002204217B4801F062FA00220E
:100B1C000821794801F05DFA00221021764801F095
:100B2C0058FA00222021744801F053FAE0E0002228
:100B3C000221714801F04DFA002204216E4801F0A7
:100B4C0048FAD5E0002201216B4801F042FA00225C
:100B5C000221694801F03DFA00220821664801F0A3
:100B6C0038FA00221021644801F033FA00224021A7
:100B7C00614801F02EFABBE0002201215E4801F031
:100B8C0028FA002202215C4801F023FA00220421F9
:100B9C00594801F01EFA00220821574801F019FAB1
:100BAC0000224021544801F014FAA1E00022022155
:100BBC00514801F00EFA002204214F4801F009FAC5
:100BCC00002220214C4801F004FA002240214A481E
:100BDC0001F0FFF98CE000220121474801F0F9F9FE
:100BEC0000220421444801F0F4F900220821424873
:100BFC0001F0EFF9002220213F4801F0EAF9002230
:100C0C0040213D4801F0E5F972E0002201213A480B
:100C1C0001F0DFF900220421374801F0DAF9002253
:100C2C000821354801F0D5F900221021324801F095
:100C3C00D0F900222021304801F0CBF900224021CC
:100C4C002D4801F0C6F953E0002201212A4801F099
:100C5C00C0F900220221284801F0BBF9002204212E
:100C6C00254801F0B6F943E000220121224801F0A9
:100C7C00B0F900220221204801F0ABF90022042136
:100C8C001D4801F0A6F9002208211B4801F0A1F92A
:100C9C0000221021184801F09CF90022202116484E
:100CAC0001F097F900224021134801F092F91FE05E
:100CBC0000220121104801F08CF9002202210E487B
:100CCC0001F087F9002204210B4801F082F900227F
:100CDC000821094801F07DF900222021064801F085
:100CEC0078F900224021044801F073F900E000BFBC
:100CFC0000BF0837BD4680BD000C014080B582B0F6
:100D0C0000AF78607B68032B7ED801A252F823F0E9
:100D1C002D0D0008670D0008A10D0008DB0D000863
:100D2C003C4B1B681846FFF7C1FE002280213A4855
:100D3C0001F04FF901224FF48071374801F049F965
:100D4C0001224FF40071344801F043F901224FF4B1
:100D5C008061314801F03DF957E02E4B5B68184635
:100D6C00FFF7A4FE012280212B4801F032F900226A
:100D7C004FF48071284801F02CF901224FF40071D6
:100D8C00254801F026F901224FF48061224801F038
:100D9C0020F93AE01F4B9B681846FFF787FE0122AB
:100DAC0080211D4801F015F901224FF480711A4879
:100DBC0001F00FF900224FF40071174801F009F906
:100DCC0001224FF48061144801F003F91DE0114B2E
:100DDC00DB681846FFF76AFE012280210E4801F0FD
:100DEC00F8F801224FF480710B4801F0F2F801225F
:100DFC004FF40071084801F0ECF800224FF48061C8
:100E0C00054801F0E6F800E000BF00BF0837BD461A
:100E1C0080BD00BFE40000200008014080B483B016
:100E2C0000AF786039607B68184A82FB031292101D
:100E3C00DB17D31A164A13607968144B83FB012312
:100E4C009A10CB17D21A13469B0013445B00CA1A94
:100E5C000F4B5A603B680D4A82FB03129210DB1752
:100E6C00D31A0B4A93603968084B83FB01239A1001
:100E7C00CB17D21A13469B0013445B00CA1A044BBF
:100E8C00DA6000BF0C37BD4680BC7047676666668B
:100E9C00E400002080B500AF032000F085FC034681
:100EAC00012B15D10B4B1B681846FFF727FF7D2133
:100EBC00032000F059FC074B1B680133054A1360F3
:100ECC00044B1B680422934202DB024B00221A6083
:100EDC0000BF80BDF400002080B500AF00F078FDAD
:100EEC0000F048F800F0CEF800F080F800F040F97F
:100EFC00184801F0CBFC7D21032000F035FC4FF4A9
:100F0C007A71042000F030FC01220021124800F01C
:100F1C00A1F901220121114800F09CF901220221C2
:100F2C000F4800F097F9012203210E4800F092F9C6
:100F3C00052204210C4800F08DF9052205210B48EF
:100F4C0000F088F905220621094800F083F900F029
:100F5C00CBFBFCE7C8010020E9170008A101000841
:100F6C00A10E00086519000889070008CD020008C9
:100F7C00F505000880B590B000AF07F118032822E2
:100F8C000021184602F032F83B1D00221A605A600C
:100F9C009A60DA601A610223BB610123BB621023E1
:100FAC00FB6200237B6307F11803184601F042F83B
:100FBC000346002B01D000F0D6F80F237B600023F2
:100FCC00BB600023FB6000233B6100237B613B1D66
:100FDC000021184601F0AEFA0346002B01D000F0B8
:100FEC00C2F800BF4037BD4680BD000080B586B05A
:100FFC0000AF07F1080300221A605A609A60DA60A9
:10100C003B4600221A605A601D4B4FF080421A601A
:10101C001B4B41F63F725A60194B00229A60184BD9
:10102C000922DA60164B00221A61154B00229A61D4
:10103C00134801F0DBFB0346002B01D000F093F8C2
:10104C004FF48053BB6007F1080319460C4801F0BC
:10105C0059FD0346002B01D000F085F800233B60BE
:10106C0000237B603B461946054801F031FF0346DF
:10107C00002B01D000F077F800BF1837BD4680BDBB
:10108C00C801002080B586B000AF07F1080300222C
:10109C001A605A609A60DA60284B9B69274A43F0C1
:1010AC0004039361254B9B6903F004037B607B680D
:1010BC00224B9B69214A43F0080393611F4B9B69A8
:1010CC0003F008033B603B68002240F2FF711C48B0
:1010DC0000F07FFF00227F211A4800F07AFF40F2D7
:1010EC00FF73BB600123FB6000233B6102237B6128
:1010FC0007F108031946124800F0DAFD7F23BB60A4
:10110C000123FB6000233B6102237B6107F1080391
:10111C0019460C4800F0CCFD4FF46053BB60002323
:10112C00FB6001233B6107F108031946044800F0FA
:10113C00BFFD00BF1837BD4680BD00BF0010024088
:10114C0000080140000C014080B582B000AF78600F
:10115C007B681B68B3F1804F01D100F053F800BFDE
:10116C000837BD4680BD80B400AF72B600BFFEE745
:10117C0080B483B000AF0023FB7133E0FA791F49D0
:10118C0013469B0013449B000B4400221A60FA790F
:10119C001A4913469B0013449B000B440433002252
:1011AC001A60FA79154913469B0013449B000B44B3
:1011BC00083300221A60FA79104913469B00134435
:1011CC009B000B440C3300221A70FA790B4913461E
:1011DC009B0013449B000B44103300221A60FB79D4
:1011EC000133FB71FB79092BC8D9054B01221A601D
:1011FC0000BF0C37BD4680BC704700BFF800002014
:10120C00C001002080B400AF104B1B6801330F4AA3
:10121C0013600F4B1B68002B13D00D4B1B7B002B4B
:10122C000FD10B4B5B68002B04D0094B5B68013B67
:10123C00074A5360064B5B68002B02D1044B01221A
:10124C001A7300BFBD4680BC704700BFC4010020AC
:10125C00F800002090B589B000AFF860B9607A60F2
:10126C000023FB770023BB6100233B610023FB774A
:10127C0033E1FA7FA14913469B0013449B000B44B6
:10128C0004331B68BA691344BB61BA69BB689A42E0
:10129C0040F2C180FA7F994913469B0013449B008E
:1012AC000B4404331A68BB69D31ABA6813443B6104
:1012BC00FA7FB969BB68C91A904813469B0013445E
:1012CC009B000344043319600923FB754CE0FB7D40
:1012DC00591EFA7D89480B469B000B449B00034426
:1012EC001968864813469B0013449B0003441960FD
:1012FC00FB7D591EFA7D81480B469B000B449B00DD
:10130C000344083319687D4813469B0013449B0023
:10131C00034408331960FB7D591EFA7D77480B4650
:10132C009B000B449B000344043319687348134619
:10133C009B0013449B00034404331960FB7D591E2E
:10134C00FA7D6E480B469B000B449B000344103304
:10135C0019686A4813469B0013449B0003441033DE
:10136C001960FB7D013BFB75FA7DFB7F9A42AED881
:10137C00FA7F624913469B0013449B000B44FA68A6
:10138C001A60FA7F5D4913469B0013449B000B4483
:10139C0004333A691A60FA7F584913469B00134488
:1013AC009B000B4408337A681A60FA7F5349134642
:1013BC009B0013449B000B4404331B68002B0AD185
:1013CC00FA7F4E4913469B0013449B000B440C338D
:1013DC0001221A7009E0FA7F484913469B00134416
:1013EC009B000B440C3300221A70FC7F00F0A4F914
:1013FC000246424923469B0023449B000B44103376
:10140C001A60FA7F3D4913469B0013449B000B4422
:10141C0010331B686EE0FA7F384913469B00134467
:10142C009B000B441B68002B54D1FA7F33491346A5
:10143C009B0013449B000B44FA681A60FA7FB9684E
:10144C00BB69C91A2D4813469B0013449B000344E7
:10145C0004331960FA7F294913469B0013449B00FF
:10146C000B4408337A681A60FA7F244913469B00B0
:10147C0013449B000B4404331B68002B0AD1FA7FE6
:10148C001E4913469B0013449B000B440C33012252
:10149C001A7009E0FA7F194913469B0013449B000C
:1014AC000B440C3300221A70FC7F00F045F9024605
:1014BC00124923469B0023449B000B4410331A60B3
:1014CC00FA7F0E4913469B0013449B000B441033C8
:1014DC001B680FE0FB7F0133FB77FB7F092B7FF64B
:1014EC00C8AEFA7F054913469B0013449B000B447E
:1014FC0010331B6818462437BD4690BDF8000020F9
:10150C0080B485B000AF786000237B737B68002BC0
:10151C0000F0E2800023FB73DAE0FA7B714913469A
:10152C009B0013449B000B4410331B687A689A424F
:10153C0040F0CB8001237B73FB7B002B2BD0FB7B00
:10154C00082B28D8FB7B5A1C664913469B00134476
:10155C009B000B441B68002B1DD0FB7B5A1C614964
:10156C0013469B0013449B000B4404331968FA7B0D
:10157C005C4813469B0013449B00034404331B68D4
:10158C00FA7B01321944574813469B0013449B00C5
:10159C00034404331960FB7BBB7360E0BB7B591CB9
:1015AC00BA7B50480B469B000B449B0003441968C4
:1015BC004C4813469B0013449B0003441960BB7BAF
:1015CC00591CBA7B47480B469B000B449B000344B9
:1015DC0008331968434813469B0013449B0003448B
:1015EC0008331960BB7B591CBA7B3E480B469B00E9
:1015FC000B449B000344043319683A4813469B0080
:10160C0013449B00034404331960BB7B591CBA7B05
:10161C0034480B469B000B449B0003440C33187856
:10162C00304913469B0013449B000B440C33024679
:10163C001A70BB7B591CBA7B2A480B469B000B4487
:10164C009B00034410331968264813469B0013442F
:10165C009B00034410331960BB7B0133BB73BB7B12
:10166C00082B9BD9BA7B1F4913469B0013449B0044
:10167C000B4400221A60BA7B1A4913469B00134490
:10168C009B000B44083300221A60BA7B15491346A1
:10169C009B0013449B000B44043300221A60BA7B5A
:1016AC00104913469B0013449B000B440C3300223F
:1016BC001A70BA7B0B4913469B0013449B000B44D6
:1016CC00103300221A607B7B07E0FB7B0133FB733A
:1016DC00FB7B092B7FF621AF7B7B18461437BD466D
:1016EC0080BC7047F8000020B0B586B000AF114B3D
:1016FC001B7B002B19D00F4B1B6898470D4B0022FE
:10170C001A730C4B3C1D1D460FCD0FC42B68236068
:10171C007B691846FFF7F4FEFB68002B05D07B684D
:10172C00F968FA681846FFF795FD00BF1837BD46F3
:10173C00B0BD00BFF800002080B400AF094B1B689F
:10174C000133084A1360074B1B68002B04D1054B6F
:10175C001B680133034A1360024B1B681846BD46D5
:10176C0080BC7047C001002080B483B000AF7860AB
:10177C0039603B68094A82FB03129210DB17D21ABC
:10178C0007497B6841F82320064A7B68002142F810
:10179C00231000BF0C37BD4680BC70476766666679
:1017AC00100200203802002080B483B000AF7860B3
:1017BC00094A7B6852F82330012B06D1064A7B6814
:1017CC00002142F82310012300E0002318460C37B7
:1017DC00BD4680BC704700BF3802002080B483B087
:1017EC0000AF00237B601CE0124A7B6852F8233068
:1017FC00002B13DD0F4A7B6852F823305A1E0D491B
:10180C007B6841F823200B4A7B6852F82330002B6D
:10181C0004D1094A7B68012142F823107B6801330B
:10182C007B607B68092BDFDD00BF00BF0C37BD463A
:10183C0080BC7047100200203802002080B485B0B4
:10184C0000AF154B9B69144A43F001039361124B93
:10185C009B6903F00103BB60BB680F4BDB690E4A4D
:10186C0043F08053D3610C4BDB6903F080537B60F6
:10187C007B680A4B5B68FB60FB6823F0E063FB60F2
:10188C00FB6843F08063FB60044AFB68536000BF55
:10189C001437BD4680BC7047001002400000014068
:1018AC0080B584B000AF78607B681B68B3F1804F63
:1018BC0013D10C4BDB690B4A43F00103D361094B89
:1018CC00DB6903F00103FB60FB68002200211C2094
:1018DC0000F0B7F91C2000F0D0F900BF1037BD465E
:1018EC0080BD00BF0010024080B400AFFEE780B4A2
:1018FC0000AFFEE780B400AFFEE780B400AFFEE7B8
:10190C0080B400AFFEE780B400AF00BFBD4680BC22
:10191C00704780B400AF00BFBD4680BC704780B438
:10192C0000AF00BFBD4680BC704780B500AF00F073
:10193C0095F800BF80BD000080B500AF024800F0F4
:10194C00F1FF00BF80BD00BFC801002080B400AF14
:10195C0000BFBD4680BC704780B500AF0420FFF7C8
:10196C0023FF0346002B08D04FF47A710420FFF7B5
:10197C00FBFE0121024800F044FB00BF80BD00BF0C
:10198C0000080140FFF7E2FF0B480C490C4A00230A
:10199C0002E0D458C4500433C4188C42F9D3094A19
:1019AC00094C002301E013600432A242FBD301F086
:1019BC00F9FAFFF791FA7047000000209C00002014
:1019CC004C3000089C00002064020020FEE7000060
:1019DC0080B500AF084B1B68074A43F01003136037
:1019EC00032000F023F90F2000F008F8FFF726FF82
:1019FC000023184680BD00BF0020024080B582B095
:101A0C0000AF7860124B1A68124B1B7819464FF4D2
:101A1C007A73B3FBF1F3B2FBF3F3184600F03BF926
:101A2C000346002B01D001230EE07B680F2B0AD854
:101A3C00002279684FF0FF3000F003F9064A7B680A
:101A4C001360002300E0012318460837BD4680BD13
:101A5C0090000020980000209400002080B400AF7B
:101A6C00054B1B781A46054B1B681344034A13603D
:101A7C0000BFBD4680BC704798000020600200206B
:101A8C0080B400AF024B1B681846BD4680BC704743
:101A9C006002002080B485B000AF78607B6803F0F2
:101AAC000703FB600C4BDB68BB60BA684FF6FF03A7
:101ABC001340BB60FB681A02BB68134343F0BF635F
:101ACC0043F40033BB60044ABB68D36000BF1437D7
:101ADC00BD4680BC704700BF00ED00E080B400AF95
:101AEC00044BDB681B0A03F007031846BD4680BC99
:101AFC00704700BF00ED00E080B483B000AF034638
:101B0C00FB7197F90730002B0BDBFB7903F01F02FD
:101B1C00064997F907305B09012000FA02F241F8F7
:101B2C00232000BF0C37BD4680BC704700E100E0AD
:101B3C0080B483B000AF03463960FB7197F907306E
:101B4C00002B0ADB3B68DAB20C4997F9073012011B
:101B5C00D2B20B4483F800230AE03B68DAB208499E
:101B6C00FB7903F00F03043B1201D2B20B441A763B
:101B7C0000BF0C37BD4680BC704700BF00E100E0E1
:101B8C0000ED00E080B489B000AFF860B9607A6015
:101B9C00FB6803F00703FB61FB69C3F10703042B2C
:101BAC0028BF0423BB61FB690433062B02D9FB69F4
:101BBC00033B00E000237B614FF0FF32BB6902FA6C
:101BCC0003F3DA43BB681A407B699A404FF0FF314C
:101BDC007B6901FA03F3D9437B680B401343184626
:101BEC002437BD4680BC704780B582B000AF7860AA
:101BFC007B68013BB3F1807F01D301230FE00A4ADC
:101C0C007B68013B53600F214FF0FF30FFF790FFD3
:101C1C00054B00229A60044B07221A6000231846D9
:101C2C000837BD4680BD00BF10E000E080B582B033
:101C3C0000AF78607868FFF72DFF00BF0837BD460E
:101C4C0080BD80B586B000AF0346B9607A60FB7387
:101C5C0000237B61FFF742FF78617A68B968786985
:101C6C00FFF790FF024697F90F3011461846FFF721
:101C7C005FFF00BF1837BD4680BD80B582B000AF96
:101C8C000346FB7197F907301846FFF735FF00BF85
:101C9C000837BD4680BD80B582B000AF78607868EB
:101CAC00FFF7A2FF034618460837BD4680BD00006B
:101CBC0080B48BB000AF7860396000237B62002366
:101CCC003B6248E101227B6A02FA03F3FB613B6849
:101CDC001B68FA691340BB61BA69FB699A4240F010
:101CEC0037813B685B68A34A93425ED0A14A93421A
:101CFC0075D8A14A934258D09F4A93426FD89F4AB5
:101D0C00934252D09D4A934269D89D4A93424CD0FB
:101D1C009B4A934263D89B4A934246D0994A93423A
:101D2C005DD8122B2AD8122B59D801A252F823F0C5
:101D3C00B71D0008911D0008A31D0008E51D000833
:101D4C00EB1D0008EB1D0008EB1D0008EB1D000847
:101D5C00EB1D0008EB1D0008EB1D0008EB1D000837
:101D6C00EB1D0008EB1D0008EB1D0008EB1D000827
:101D7C00EB1D0008991D0008AD1D0008824A934216
:101D8C0013D02CE03B68DB683B6229E03B68DB68E6
:101D9C0004333B6224E03B68DB6808333B621FE0A2
:101DAC003B68DB680C333B621AE03B689B68002B9A
:101DBC0002D104233B6213E03B689B68012B05D1E5
:101DCC0008233B627B68FA691A6109E008233B62CD
:101DDC007B68FA695A6103E000233B6200E000BFB4
:101DEC00BB69FF2B01D87B6801E07B6804337B6106
:101DFC00BB69FF2B02D87B6A9B0002E07B6A083B25
:101E0C009B003B617B691A680F213B6901FA03F364
:101E1C00DB431A40396A3B6901FA03F31A437B69C5
:101E2C001A603B685B6803F08053002B00F09080D5
:101E3C00564B9B69554A43F001039361534B9B6985
:101E4C0003F00103BB60BB68514A7B6A9B080233F9
:101E5C0052F82330FB607B6A03F003039B000F22D4
:101E6C0002FA03F3DB43FA681340FB607B68494AD0
:101E7C0093420DD07B68484A934207D07B68474A0F
:101E8C00934201D1022304E0032302E0012300E08A
:101E9C0000237A6A02F0030292009340FA6813431B
:101EAC00FB603B497B6A9B080233FA6841F82320AC
:101EBC003B685B6803F48013002B06D0384B9A68A0
:101ECC003749BB6913438B6006E0354B9A68BB6995
:101EDC00DB43334913408B603B685B6803F40013AE
:101EEC00002B06D02E4BDA682D49BB691343CB600F
:101EFC0006E02B4BDA68BB69DB4329491340CB6006
:101F0C003B685B6803F40033002B06D0244B5A6803
:101F1C002349BB6913434B6006E0214B5A68BB69EC
:101F2C00DB431F4913404B603B685B6803F4803311
:101F3C00002B06D01A4B1A681949BB6913430B6066
:101F4C0006E0174B1A68BB69DB43154913400B605D
:101F5C007B6A01337B623B681A687B6A22FA03F363
:101F6C00002B7FF4AFAE00BF00BF2C37BD4680BC4A
:101F7C00704700BF0000321000003110000022102A
:101F8C00000021100000121000001110001002407F
:101F9C000000014000080140000C0140001001400D
:101FAC000004014080B485B000AF78600B467B80A4
:101FBC007B689A687B881340002B02D00123FB734B
:101FCC0001E00023FB73FB7B18461437BD4680BC35
:101FDC00704780B483B000AF78600B467B801346AB
:101FEC007B707B78002B03D07A887B681A6103E0C6
:101FFC007B881A047B681A6100BF0C37BD4680BC15
:10200C00704780B485B000AF78600B467B807B68EE
:10201C00DB68FB607A88FB6813401A04FB68D943C1
:10202C007B880B401A437B681A6100BF1437BD468E
:10203C0080BC704780B586B000AF78607B68002BA1
:10204C0001D101236CE27B681B6803F00103002BB8
:10205C0000F08780924B5B6803F00C03042B0CD0D0
:10206C008F4B5B6803F00C03082B12D18C4B5B6815
:10207C0003F48033B3F5803F0BD1894B1B6803F419
:10208C000033002B6CD07B685B68002B68D101237C
:10209C0046E27B685B68B3F5803F06D1804B1B68DA
:1020AC007F4A43F4803313602EE07B685B68002B1F
:1020BC000CD17B4B1B687A4A23F480331360784B2A
:1020CC001B68774A23F4802313601DE07B685B68F0
:1020DC00B3F5A02F0CD1724B1B68714A43F48023CB
:1020EC0013606F4B1B686E4A43F4803313600BE034
:1020FC006B4B1B686A4A23F480331360684B1B6874
:10210C00674A23F4802313607B685B68002B13D031
:10211C00FFF7B6FC386108E0FFF7B2FC02463B69FA
:10212C00D31A642B01D90323FAE15D4B1B6803F42A
:10213C000033002BF0D014E0FFF7A2FC386108E06C
:10214C00FFF79EFC02463B69D31A642B01D903238B
:10215C00E6E1534B1B6803F40033002BF0D100E095
:10216C0000BF7B681B6803F00203002B63D04C4B51
:10217C005B6803F00C03002B0BD0494B5B6803F03E
:10218C000C03082B1CD1464B5B6803F48033002BEB
:10219C0016D1434B1B6803F00203002B05D07B6860
:1021AC001B69012B01D00123BAE13D4B1B6823F0C5
:1021BC00F8027B685B69DB00394913430B603AE03A
:1021CC007B681B69002B20D0364B01221A60FFF76D
:1021DC0057FC386108E0FFF753FC02463B69D31A01
:1021EC00022B01D903239BE12D4B1B6803F0020347
:1021FC00002BF0D02A4B1B6823F0F8027B685B693C
:10220C00DB00274913430B6015E0264B00221A60B4
:10221C00FFF736FC386108E0FFF732FC02463B69F9
:10222C00D31A022B01D903237AE11D4B1B6803F04F
:10223C000203002BF0D17B681B6803F00803002B12
:10224C003AD07B689B69002B19D0174B01221A607E
:10225C00FFF716FC386108E0FFF712FC02463B69F9
:10226C00D31A022B01D903235AE10D4B5B6A03F0FD
:10227C000203002BF0D0012000F09AFA1CE00A4B6C
:10228C0000221A60FFF7FCFB38610FE0FFF7F8FB48
:10229C0002463B69D31A022B08D9032340E100BF45
:1022AC000010024000004242800442429E4B5B6A96
:1022BC0003F00203002BE9D17B681B6803F00403D5
:1022CC00002B00F0A6800023FB75974BDB6903F015
:1022DC008053002B0DD1944BDB69934A43F0805310
:1022EC00D361914BDB6903F08053BB60BB68012366
:1022FC00FB758E4B1B6803F48073002B18D18B4B32
:10230C001B688A4A43F480731360FFF7B9FB38618A
:10231C0008E0FFF7B5FB02463B69D31A642B01D9E1
:10232C000323FDE0814B1B6803F48073002BF0D07A
:10233C007B68DB68012B06D17B4B1B6A7A4A43F026
:10234C00010313622DE07B68DB68002B0CD1764B0C
:10235C001B6A754A23F001031362734B1B6A724AA2
:10236C0023F0040313621CE07B68DB68052B0CD1A3
:10237C006D4B1B6A6C4A43F0040313626A4B1B6A75
:10238C00694A43F0010313620BE0674B1B6A664A10
:10239C0023F001031362644B1B6A634A23F00403AA
:1023AC0013627B68DB68002B15D0FFF769FB386183
:1023BC000AE0FFF765FB02463B69D31A41F288320B
:1023CC00934201D90323ABE0574B1B6A03F0020382
:1023DC00002BEED014E0FFF753FB38610AE0FFF757
:1023EC004FFB02463B69D31A41F28832934201D922
:1023FC00032395E04C4B1B6A03F00203002BEED138
:10240C00FB7D012B05D1484BDB69474A23F08053F8
:10241C00D3617B68DB69002B00F08180424B5B68E9
:10242C0003F00C03082B61D07B68DB69022B46D1CF
:10243C003F4B00221A60FFF723FB386108E0FFF7DF
:10244C001FFB02463B69D31A022B01D9032367E019
:10245C00354B1B6803F00073002BF0D17B681B6AB3
:10246C00B3F5803F08D1304B5B6823F400327B68B6
:10247C009B682D4913434B602B4B5B6823F4741200
:10248C007B68196A7B685B6A0B43274913434B6073
:10249C00274B01221A60FFF7F3FA386108E0FFF7C7
:1024AC00EFFA02463B69D31A022B01D9032337E01A
:1024BC001D4B1B6803F00073002BF0D02FE01C4B5E
:1024CC0000221A60FFF7DCFA386108E0FFF7D8FA4F
:1024DC0002463B69D31A022B01D9032320E0124B8D
:1024EC001B6803F00073002BF0D118E07B68DB69EC
:1024FC00012B01D1012313E00B4B5B68FB60FB68E4
:10250C0003F480327B681B6A9A4206D1FB6803F4A1
:10251C0070127B685B6A9A4201D0012300E00023B1
:10252C0018461837BD4680BD0010024000700040B0
:10253C006000424280B584B000AF786039607B683F
:10254C00002B01D10123D0E06A4B1B6803F0070379
:10255C003A689A4210D9674B1B6823F00702654909
:10256C003B6813430B60634B1B6803F007033A682B
:10257C009A4201D00123B8E07B681B6803F0020388
:10258C00002B20D07B681B6803F00403002B05D0C4
:10259C00594B5B68584A43F4E06353607B681B6893
:1025AC0003F00803002B05D0534B5B68524A43F4ED
:1025BC0060535360504B5B6823F0F0027B689B6860
:1025CC004D4913434B607B681B6803F00103002BE0
:1025DC0040D07B685B68012B07D1474B1B6803F429
:1025EC000033002B15D101237FE07B685B68022B45
:1025FC0007D1414B1B6803F00073002B09D1012359
:10260C0073E03D4B1B6803F00203002B01D1012347
:10261C006BE0394B5B6823F003027B685B683649DF
:10262C0013434B60FFF72CFAF8600AE0FFF728FA27
:10263C000246FB68D31A41F28832934201D9032334
:10264C0053E02D4B5B6803F00C027B685B689B00CE
:10265C009A42EBD1274B1B6803F007033A689A4266
:10266C0010D2244B1B6823F0070222493B6813430A
:10267C000B60204B1B6803F007033A689A4201D0A9
:10268C00012332E07B681B6803F00403002B08D0A5
:10269C00194B5B6823F4E0627B68DB6816491343D3
:1026AC004B607B681B6803F00803002B09D0124BAE
:1026BC005B6823F460527B681B69DB000E49134393
:1026CC004B6000F021F802460B4B5B681B0903F0D2
:1026DC000F030A49CB5C22FA03F3094A1360094B36
:1026EC001B681846FFF78AF9002318461037BD46B9
:1026FC0080BD00BF002002400010024020300008C6
:10270C00900000209400002080B487B000AF00231C
:10271C00FB600023BB6000237B6100237B600023F4
:10272C003B611E4B5B68FB60FB6803F00C03042BE6
:10273C0002D0082B03D027E0194B3B6127E0FB6844
:10274C009B0C03F00F03174AD35C7B60FB6803F40C
:10275C008033002B10D0114B5B685B0C03F0010332
:10276C00114AD35CBB607B680D4A02FB03F2BB6869
:10277C00B2FBF3F37B6104E07B680C4A02FB03F3CE
:10278C007B617B693B6102E0054B3B6100BF3B69B0
:10279C0018461C37BD4680BC704700BF0010024075
:1027AC0000127A00303000084030000800093D006B
:1027BC0080B485B000AF78600A4B1B680A4AA2FB54
:1027CC0003235B0A7A6802FB03F3FB6000BFFB6820
:1027DC005A1EFA60002BF9D100BF00BF1437BD465A
:1027EC0080BC704790000020D34D621080B582B041
:1027FC0000AF78607B68002B01D1012341E07B683E
:10280C0093F83D30DBB2002B06D17B68002283F8B5
:10281C003C207868FFF744F87B68022283F83D205F
:10282C007B681A687B6804331946104600F056FA28
:10283C007B68012283F846207B68012283F83E20C6
:10284C007B68012283F83F207B68012283F84020BB
:10285C007B68012283F841207B68012283F84220A7
:10286C007B68012283F843207B68012283F8442093
:10287C007B68012283F845207B68012283F83D2088
:10288C00002318460837BD4680BD000080B485B0D3
:10289C0000AF78607B6893F83D30DBB2012B01D040
:1028AC00012335E07B68022283F83D207B681B689E
:1028BC00DA687B681B6842F00102DA607B681B688F
:1028CC00164A934209D07B681B68B3F1804F04D041
:1028DC007B681B68124A934211D17B681B689B680A
:1028EC0003F00703FB60FB68062B10D07B681B68AA
:1028FC001A687B681B6842F001021A6007E07B686B
:10290C001B681A687B681B6842F001021A6000237E
:10291C0018461437BD4680BC704700BF002C0140E0
:10292C000004004080B584B000AF78607B681B6801
:10293C00DB68FB607B681B681B69BB60BB6803F0D2
:10294C000203002B20D0FB6803F00203002B1BD0EA
:10295C007B681B686FF002021A617B6801221A7790
:10296C007B681B689B6903F00303002B03D078681A
:10297C0000F098F905E0786800F08BF9786800F0C1
:10298C009AF97B6800221A77BB6803F00403002BCA
:10299C0020D0FB6803F00403002B1BD07B681B6862
:1029AC006FF004021A617B6802221A777B681B683D
:1029BC009B6903F44073002B03D0786800F072F924
:1029CC0005E0786800F065F9786800F074F97B68C8
:1029DC0000221A77BB6803F00803002B20D0FB6899
:1029EC0003F00803002B1BD07B681B686FF00802F8
:1029FC001A617B6804221A777B681B68DB6903F019
:102A0C000303002B03D0786800F04CF905E07868DC
:102A1C0000F03FF9786800F04EF97B6800221A77D5
:102A2C00BB6803F01003002B20D0FB6803F01003ED
:102A3C00002B1BD07B681B686FF010021A617B683F
:102A4C0008221A777B681B68DB6903F44073002B40
:102A5C0003D0786800F026F905E0786800F019F9E1
:102A6C00786800F028F97B6800221A77BB6803F0BD
:102A7C000103002B0CD0FB6803F00103002B07D0E3
:102A8C007B681B686FF001021A617868FEF75CFBCB
:102A9C00BB6803F08003002B0CD0FB6803F08003B1
:102AAC00002B07D07B681B686FF080021A61786876
:102ABC0000F06FFABB6803F04003002B0CD0FB68EE
:102ACC0003F04003002B07D07B681B686FF04002BB
:102ADC001A61786800F0F8F8BB6803F02003002B4B
:102AEC000CD0FB6803F02003002B07D07B681B681D
:102AFC006FF020021A61786800F042FA00BF1037BC
:102B0C00BD4680BD80B584B000AF786039600023CD
:102B1C00FB737B6893F83C30012B01D10223B4E0AA
:102B2C007B68012283F83C207B68022283F83D20DD
:102B3C007B681B689B68BB60BB6823F07703BB603A
:102B4C00BB6823F47F43BB607B681B68BA689A60E0
:102B5C003B681B68B3F5005F3ED0B3F5005F00F235
:102B6C008780B3F5805F00F08680B3F5805F7FD8F7
:102B7C00702B1AD0702B7BD8602B50D0602B77D851
:102B8C00502B3CD0502B73D8402B58D0402B6FD8A7
:102B9C00302B64D0302B6BD8202B60D0202B67D8F7
:102BAC00002B5CD0102B5AD062E07B6818683B6815
:102BBC0099683B685A683B68DB6800F06AF97B6887
:102BCC001B689B68BB60BB6843F07703BB607B688A
:102BDC001B68BA689A604FE07B6818683B68996814
:102BEC003B685A683B68DB6800F053F97B681B68EC
:102BFC009A687B681B6842F480429A603CE07B6870
:102C0C0018683B6859683B68DB681A4600F0CAF8DC
:102C1C007B681B685021184600F021F92CE07B687A
:102C2C0018683B6859683B68DB681A4600F0E8F89E
:102C3C007B681B686021184600F011F91CE07B686A
:102C4C0018683B6859683B68DB681A4600F0AAF8BC
:102C5C007B681B684021184600F001F90CE07B688A
:102C6C001A683B681B681946104600F0F8F803E038
:102C7C000123FB7300E000BF7B68012283F83D2039
:102C8C007B68002283F83C20FB7B18461037BD463E
:102C9C0080BD80B483B000AF786000BF0C37BD46F8
:102CAC0080BC704780B483B000AF786000BF0C3735
:102CBC00BD4680BC704780B483B000AF786000BF65
:102CCC000C37BD4680BC704780B483B000AF7860D1
:102CDC0000BF0C37BD4680BC7047000080B485B087
:102CEC0000AF786039607B681B68FB607B682B4A9F
:102CFC00934207D07B68B3F1804F03D07B68284A9E
:102D0C00934208D1FB6823F07003FB603B685B685F
:102D1C00FA681343FB607B68204A934207D07B68B8
:102D2C00B3F1804F03D07B681D4A934208D1FB68F6
:102D3C0023F44073FB603B68DB68FA681343FB6069
:102D4C00FB6823F080023B685B691343FB607B6884
:102D5C00FA681A603B689A687B68DA623B681A68A2
:102D6C007B689A627B680D4A934203D13B681A696F
:102D7C007B681A637B6801225A617B681B6903F0CC
:102D8C000103002B05D07B681B6923F001027B68D3
:102D9C001A6100BF1437BD4680BC7047002C01403F
:102DAC000004004080B487B000AFF860B9607A606E
:102DBC00FB681B6A7B61FB681B6A23F00102FB68E2
:102DCC001A62FB689B693B613B6923F0F0033B6132
:102DDC007B681B013A6913433B617B6923F00A034F
:102DEC007B617A69BB6813437B61FB683A699A61C2
:102DFC00FB687A691A6200BF1C37BD4680BC7047FD
:102E0C0080B487B000AFF860B9607A60FB681B6A69
:102E1C007B61FB681B6A23F01002FB681A62FB687B
:102E2C009B693B613B6923F470433B617B681B03EB
:102E3C003A6913433B617B6923F0A0037B61BB6858
:102E4C001B017A6913437B61FB683A699A61FB68E1
:102E5C007A691A6200BF1C37BD4680BC704780B4CB
:102E6C0085B000AF786039607B689B68FB60FB685D
:102E7C0023F07003FB603A68FB68134343F00703CD
:102E8C00FB607B68FA689A6000BF1437BD4680BC53
:102E9C00704780B487B000AFF860B9607A603B606F
:102EAC00FB689B687B617B6923F47F437B613B6898
:102EBC001A027B681A43BB6813437A6913437B611C
:102ECC00FB687A699A6000BF1C37BD4680BC7047AE
:102EDC0080B485B000AF786039607B6893F83C3083
:102EEC00012B01D1022341E07B68012283F83C20B5
:102EFC007B68022283F83D207B681B685B68FB6063
:102F0C007B681B689B68BB60FB6823F07003FB60ED
:102F1C003B681B68FA681343FB607B681B68FA68A4
:102F2C005A607B681B68144A934209D07B681B6803
:102F3C00B3F1804F04D07B681B68104A93420CD1CC
:102F4C00BB6823F08003BB603B685B68BA681343C3
:102F5C00BB607B681B68BA689A607B68012283F847
:102F6C003D207B68002283F83C2000231846143750
:102F7C00BD4680BC704700BF002C014000040040DF
:102F8C0080B483B000AF786000BF0C37BD4680BC06
:102F9C00704780B483B000AF786000BF0C37BD467B
:102FAC0080BC704770B500260C4D0D4C641BA410F2
:102FBC00A64209D100F022F800260A4D0A4C641BE7
:102FCC00A410A64205D170BD55F8043B98470136B4
:102FDC00EEE755F8043B98470136F2E74430000819
:102FEC0044300008443000084830000803460244CE
:102FFC00934200D1704703F8011BF9E7F8B500BF05
:10300C00F8BC08BC9E467047F8B500BFF8BC08BCBD
:04301C009E46704715
:103020000000000000000000010203040607080978
:1030300002030405060708090A0B0C0D0E0F1010F9
:043040000102000089
:04304400310100084E
:043048000D0100086E
:10304C000008014000080140000801400000000099
:10305C00000000000008001000200000000000002C
:10306C000100000000000000000000000000000053
:10307C000000000001000000000000000000000043
:10308C000000000000000000010000000000000033
:10309C000000000000000000000000000100000023
:1030AC000000000000000000000000000000000014
:1030BC00F40100000000000000000000000000000F
:1030CC0000000000070000000200000005000000E6
:0C30DC0000127A0010000000010000004B
:040000050800199145
:00000001FF
